:040000000CEF01F010
:08000800046ED8CF05F0E0CF33
:1000100006F00001E9CF0CF0EACF07F0E1CF08F0DD
:10002000E2CF09F0D9CF0AF0DACF0BF0F3CF12F01C
:10003000F4CF13F0FACF14F0F5CF15F0F6CF16F099
:10004000F7CF17F000C00EF001C00FF002C010F0A3
:1000500003C011F0F2AA30EF00F0F2B45DEF00F04F
:100060009DAA36EF00F09EBA60EF00F00EC000F0DF
:100070000FC001F010C002F011C003F00CC0E9FF86
:1000800007C0EAFF078E08C0E1FF09C0E2FF0AC00F
:10009000D9FF0BC0DAFF12C0F3FF13C0F4FF14C086
:1000A000FAFF15C0F5FF16C0F6FF17C0F7FF0450A2
:1000B00006C0E0FF05C0D8FF1000F29436EF00F054
:1000C0009E9A36EF00F0030E215E09E3EA6A210EE4
:1000D000E96EEF5004E001D000D0EF2EFDD728EFFD
:1000E00001F0016A026A006A036A235002E12250A9
:1000F00018E0100E246ED8902036213600360336D4
:100100002350035C02E12250005C07E32250005EB2
:10011000D8A003062350035ED88001360236242E71
:10012000EAD741EF01F02650016A255C03E225C0C1
:1001300000F00CD0006A080E276E253600362650D7
:10014000005CD8B0006E0136272EF7D71200EA6A9D
:10015000240EE96EEF500DE0060E016E006A002ECF
:10016000FED7012EFBD77B0E006E002EFED7EF2EA2
:10017000F3D7F6EF00F0226A100E236E215219E138
:10018000010E216E100E236E205063080AE2200E2D
:10019000226E20C025F0640E266EC5DF01C020F05F
:1001A00007D020C025F00A0E266EBDDF01C020F06A
:1001B0001AD0216A400E236E205063080DE220C041
:1001C00025F00A0E266EAFDF01C025F00A0E266E5E
:1001D000AADF00C020F007D020C025F00A0E266E4E
:1001E000A2DF00C020F0960E246EB1D7205023105D
:1001F0002210936A8A6E21C001F057EF01F022505D
:10020000205C03E32150225C03E296928D7202D0BF
:1002100096908D8062EF01F0F86AD09E078EC180C3
:10022000C182C184C196070EB46E800ED56EF28A6B
:100230009D8AC00EF212D26A196A780E1E6E3C0EAA
:100240001F6E94908B80020E206E950E216E3BD710
:10025000202EFBD794908B90948282A2FDD7D76AF0
:10026000D66A0000948282B2FDD7D6501A6ED7CFDC
:100270001BF01BC021F01AC020F0236A910E226EE1
:1002800030D702C01DF001C01CF01D5002080AE268
:10029000FF0A03E11C50E70805E2936A8A6A959E0B
:1002A0008C8E07D01CC020F019C021F064D701C08B
:1002B00019F01EC020F01FC021F01CC022F019C090
:0802C00023F09DD7BAD703001B
:020000040030CA
:0E00000000220E0E000081000FC00FE00F4026
:00000001FF
;PIC18F448
;CRC=63A9  CREATED="15-5-22 21:14"
